{
  "_format": "hh-sol-artifact-1",
  "contractName": "Rsvp",
  "sourceName": "contracts/Rsvp.sol",
  "abi": [
    {
      "anonymous": false,
      "inputs": [
        {
          "indexed": false,
          "internalType": "address",
          "name": "personAddress",
          "type": "address"
        },
        {
          "indexed": false,
          "internalType": "uint32",
          "name": "id",
          "type": "uint32"
        }
      ],
      "name": "NewCheckIn",
      "type": "event"
    },
    {
      "anonymous": false,
      "inputs": [
        {
          "indexed": false,
          "internalType": "uint32",
          "name": "id",
          "type": "uint32"
        },
        {
          "indexed": false,
          "internalType": "address",
          "name": "personAddress",
          "type": "address"
        },
        {
          "indexed": false,
          "internalType": "string",
          "name": "eventName",
          "type": "string"
        },
        {
          "indexed": false,
          "internalType": "uint256",
          "name": "eventDate",
          "type": "uint256"
        },
        {
          "indexed": false,
          "internalType": "uint32",
          "name": "capacity",
          "type": "uint32"
        },
        {
          "indexed": false,
          "internalType": "uint256",
          "name": "deposit",
          "type": "uint256"
        }
      ],
      "name": "NewEvent",
      "type": "event"
    },
    {
      "anonymous": false,
      "inputs": [
        {
          "indexed": false,
          "internalType": "string",
          "name": "name",
          "type": "string"
        },
        {
          "indexed": false,
          "internalType": "address",
          "name": "personAddress",
          "type": "address"
        },
        {
          "indexed": false,
          "internalType": "uint32",
          "name": "id",
          "type": "uint32"
        }
      ],
      "name": "NewRsvp",
      "type": "event"
    },
    {
      "anonymous": false,
      "inputs": [
        {
          "indexed": false,
          "internalType": "address",
          "name": "personAddress",
          "type": "address"
        },
        {
          "indexed": false,
          "internalType": "uint32",
          "name": "id",
          "type": "uint32"
        }
      ],
      "name": "Withdraw",
      "type": "event"
    },
    {
      "inputs": [
        {
          "internalType": "address",
          "name": "personAddress",
          "type": "address"
        },
        {
          "internalType": "uint32",
          "name": "id",
          "type": "uint32"
        }
      ],
      "name": "checkIn",
      "outputs": [],
      "stateMutability": "nonpayable",
      "type": "function"
    },
    {
      "inputs": [
        {
          "internalType": "string",
          "name": "eventName",
          "type": "string"
        },
        {
          "internalType": "uint256",
          "name": "eventDate",
          "type": "uint256"
        },
        {
          "internalType": "uint32",
          "name": "capacity",
          "type": "uint32"
        },
        {
          "internalType": "uint256",
          "name": "deposit",
          "type": "uint256"
        }
      ],
      "name": "createEvent",
      "outputs": [],
      "stateMutability": "nonpayable",
      "type": "function"
    },
    {
      "inputs": [
        {
          "internalType": "uint32",
          "name": "",
          "type": "uint32"
        }
      ],
      "name": "events",
      "outputs": [
        {
          "internalType": "uint32",
          "name": "id",
          "type": "uint32"
        },
        {
          "internalType": "string",
          "name": "eventName",
          "type": "string"
        },
        {
          "internalType": "address",
          "name": "eventCreator",
          "type": "address"
        },
        {
          "internalType": "uint256",
          "name": "eventDate",
          "type": "uint256"
        },
        {
          "internalType": "uint32",
          "name": "capacity",
          "type": "uint32"
        },
        {
          "internalType": "uint256",
          "name": "deposit",
          "type": "uint256"
        }
      ],
      "stateMutability": "view",
      "type": "function"
    },
    {
      "inputs": [
        {
          "internalType": "uint32",
          "name": "id",
          "type": "uint32"
        }
      ],
      "name": "getEvent",
      "outputs": [
        {
          "components": [
            {
              "internalType": "uint32",
              "name": "id",
              "type": "uint32"
            },
            {
              "internalType": "string",
              "name": "eventName",
              "type": "string"
            },
            {
              "internalType": "address",
              "name": "eventCreator",
              "type": "address"
            },
            {
              "internalType": "uint256",
              "name": "eventDate",
              "type": "uint256"
            },
            {
              "internalType": "uint32",
              "name": "capacity",
              "type": "uint32"
            },
            {
              "internalType": "uint256",
              "name": "deposit",
              "type": "uint256"
            },
            {
              "internalType": "string[]",
              "name": "rsvpName",
              "type": "string[]"
            },
            {
              "internalType": "address[]",
              "name": "rsvpAddress",
              "type": "address[]"
            },
            {
              "internalType": "bool[]",
              "name": "rsvpCheckIn",
              "type": "bool[]"
            }
          ],
          "internalType": "struct Rsvp.Event",
          "name": "",
          "type": "tuple"
        }
      ],
      "stateMutability": "view",
      "type": "function"
    },
    {
      "inputs": [],
      "name": "getEventsSize",
      "outputs": [
        {
          "internalType": "uint32",
          "name": "",
          "type": "uint32"
        }
      ],
      "stateMutability": "view",
      "type": "function"
    },
    {
      "inputs": [
        {
          "internalType": "string",
          "name": "name",
          "type": "string"
        },
        {
          "internalType": "uint32",
          "name": "id",
          "type": "uint32"
        }
      ],
      "name": "rsvp",
      "outputs": [],
      "stateMutability": "payable",
      "type": "function"
    },
    {
      "inputs": [
        {
          "internalType": "uint32",
          "name": "id",
          "type": "uint32"
        }
      ],
      "name": "withdrawUnclaimed",
      "outputs": [],
      "stateMutability": "nonpayable",
      "type": "function"
    }
  ],
  "bytecode": "0x608060405260008060006101000a81548163ffffffff021916908363ffffffff16021790555034801561003157600080fd5b5061236d806100416000396000f3fe6080604052600436106100705760003560e01c80635918b12d1161004e5780635918b12d1461010b57806399aa5a8014610127578063d88c8e9814610150578063e7ba2c351461018d57610070565b80631472d53f146100755780631d755fd6146100b757806357ac264e146100e0575b600080fd5b34801561008157600080fd5b5061009c60048036038101906100979190611475565b6101b6565b6040516100ae9695949392919061159b565b60405180910390f35b3480156100c357600080fd5b506100de60048036038101906100d99190611764565b6102ba565b005b3480156100ec57600080fd5b506100f56105f3565b60405161010291906117e7565b60405180910390f35b61012560048036038101906101209190611802565b61060c565b005b34801561013357600080fd5b5061014e6004803603810190610149919061188a565b6108ef565b005b34801561015c57600080fd5b5061017760048036038101906101729190611475565b610ba3565b6040516101849190611c56565b60405180910390f35b34801561019957600080fd5b506101b460048036038101906101af9190611475565b610f09565b005b60016020528060005260406000206000915090508060000160009054906101000a900463ffffffff16908060010180546101ef90611ca7565b80601f016020809104026020016040519081016040528092919081815260200182805461021b90611ca7565b80156102685780601f1061023d57610100808354040283529160200191610268565b820191906000526020600020905b81548152906001019060200180831161024b57829003601f168201915b5050505050908060020160009054906101000a900473ffffffffffffffffffffffffffffffffffffffff16908060030154908060040160009054906101000a900463ffffffff16908060050154905086565b600060405180610120016040528060008054906101000a900463ffffffff1663ffffffff1681526020018681526020013373ffffffffffffffffffffffffffffffffffffffff1681526020018581526020018463ffffffff168152602001838152602001600067ffffffffffffffff8111156103395761033861160d565b5b60405190808252806020026020018201604052801561036c57816020015b60608152602001906001900390816103575790505b508152602001600067ffffffffffffffff81111561038d5761038c61160d565b5b6040519080825280602002602001820160405280156103bb5781602001602082028036833780820191505090505b508152602001600067ffffffffffffffff8111156103dc576103db61160d565b5b60405190808252806020026020018201604052801561040a5781602001602082028036833780820191505090505b50815250905080600160008060009054906101000a900463ffffffff1663ffffffff1663ffffffff16815260200190815260200160002060008201518160000160006101000a81548163ffffffff021916908363ffffffff160217905550602082015181600101908161047d9190611e84565b5060408201518160020160006101000a81548173ffffffffffffffffffffffffffffffffffffffff021916908373ffffffffffffffffffffffffffffffffffffffff1602179055506060820151816003015560808201518160040160006101000a81548163ffffffff021916908363ffffffff16021790555060a0820151816005015560c082015181600601908051906020019061051c9291906111ad565b5060e0820151816007019080519060200190610539929190611206565b50610100820151816008019080519060200190610557929190611290565b509050507fe8548a15bafadf7f18e52ea0c466f4b32799144f0ffc39221b9ca28106bef97360008054906101000a900463ffffffff1633878787876040516105a496959493929190611f56565b60405180910390a160008081819054906101000a900463ffffffff16809291906105cd90611fed565b91906101000a81548163ffffffff021916908363ffffffff160217905550505050505050565b60008060009054906101000a900463ffffffff16905090565b600160008263ffffffff1663ffffffff16815260200190815260200160002060040160009054906101000a900463ffffffff1663ffffffff16600160008363ffffffff1663ffffffff16815260200190815260200160002060070180549050106106ab576040517f08c379a00000000000000000000000000000000000000000000000000000000081526004016106a290612065565b60405180910390fd5b42600160008363ffffffff1663ffffffff168152602001908152602001600020600301541161070f576040517f08c379a0000000000000000000000000000000000000000000000000000000008152600401610706906120d1565b60405180910390fd5b600160008263ffffffff1663ffffffff168152602001908152602001600020600501543414610773576040517f08c379a000000000000000000000000000000000000000000000000000000000815260040161076a9061213d565b60405180910390fd5b600160008263ffffffff1663ffffffff168152602001908152602001600020600601829080600181540180825580915050600190039060005260206000200160009091909190915090816107c79190611e84565b50600160008263ffffffff1663ffffffff168152602001908152602001600020600701339080600181540180825580915050600190039060005260206000200160009091909190916101000a81548173ffffffffffffffffffffffffffffffffffffffff021916908373ffffffffffffffffffffffffffffffffffffffff160217905550600160008263ffffffff1663ffffffff168152602001908152602001600020600801600090806001815401808255809150506001900390600052602060002090602091828204019190069091909190916101000a81548160ff0219169083151502179055507fc6024057f66644a6fa508dd0def171f4eb789e31c664d81833b6ee07157d9b068233836040516108e39392919061215d565b60405180910390a15050565b42600160008363ffffffff1663ffffffff1681526020019081526020016000206003015410610953576040517f08c379a000000000000000000000000000000000000000000000000000000000815260040161094a906121e7565b60405180910390fd5b60005b600160008363ffffffff1663ffffffff168152602001908152602001600020600701805490508163ffffffff161015610b65578273ffffffffffffffffffffffffffffffffffffffff16600160008463ffffffff1663ffffffff1681526020019081526020016000206007018263ffffffff16815481106109da576109d9612207565b5b9060005260206000200160009054906101000a900473ffffffffffffffffffffffffffffffffffffffff1673ffffffffffffffffffffffffffffffffffffffff16148015610a7f5750600160008363ffffffff1663ffffffff1681526020019081526020016000206008018163ffffffff1681548110610a5d57610a5c612207565b5b90600052602060002090602091828204019190069054906101000a900460ff16155b15610b525760018060008463ffffffff1663ffffffff1681526020019081526020016000206008018263ffffffff1681548110610abf57610abe612207565b5b90600052602060002090602091828204019190066101000a81548160ff0219169083151502179055508273ffffffffffffffffffffffffffffffffffffffff166108fc600160008563ffffffff1663ffffffff168152602001908152602001600020600501549081150290604051600060405180830381858888f19350505050158015610b50573d6000803e3d6000fd5b505b8080610b5d90611fed565b915050610956565b507fcdaf7fc6b7a9bf553d84b5f96c925aacef540d5129711c5b08d70256acda48e78282604051610b97929190612236565b60405180910390a15050565b610bab611336565b600160008363ffffffff1663ffffffff168152602001908152602001600020604051806101200160405290816000820160009054906101000a900463ffffffff1663ffffffff1663ffffffff168152602001600182018054610c0c90611ca7565b80601f0160208091040260200160405190810160405280929190818152602001828054610c3890611ca7565b8015610c855780601f10610c5a57610100808354040283529160200191610c85565b820191906000526020600020905b815481529060010190602001808311610c6857829003601f168201915b505050505081526020016002820160009054906101000a900473ffffffffffffffffffffffffffffffffffffffff1673ffffffffffffffffffffffffffffffffffffffff1673ffffffffffffffffffffffffffffffffffffffff168152602001600382015481526020016004820160009054906101000a900463ffffffff1663ffffffff1663ffffffff1681526020016005820154815260200160068201805480602002602001604051908101604052809291908181526020016000905b82821015610def578382906000526020600020018054610d6290611ca7565b80601f0160208091040260200160405190810160405280929190818152602001828054610d8e90611ca7565b8015610ddb5780601f10610db057610100808354040283529160200191610ddb565b820191906000526020600020905b815481529060010190602001808311610dbe57829003601f168201915b505050505081526020019060010190610d43565b50505050815260200160078201805480602002602001604051908101604052809291908181526020018280548015610e7c57602002820191906000526020600020905b8160009054906101000a900473ffffffffffffffffffffffffffffffffffffffff1673ffffffffffffffffffffffffffffffffffffffff1681526020019060010190808311610e32575b5050505050815260200160088201805480602002602001604051908101604052809291908181526020018280548015610ef957602002820191906000526020600020906000905b82829054906101000a900460ff16151581526020019060010190602082600001049283019260010382029150808411610ec35790505b5050505050815250509050919050565b600160008263ffffffff1663ffffffff168152602001908152602001600020600301544211610f6d576040517f08c379a0000000000000000000000000000000000000000000000000000000008152600401610f64906122ab565b60405180910390fd5b3373ffffffffffffffffffffffffffffffffffffffff16600160008363ffffffff1663ffffffff16815260200190815260200160002060020160009054906101000a900473ffffffffffffffffffffffffffffffffffffffff1673ffffffffffffffffffffffffffffffffffffffff161461101d576040517f08c379a000000000000000000000000000000000000000000000000000000000815260040161101490612317565b60405180910390fd5b60005b600160008363ffffffff1663ffffffff168152602001908152602001600020600701805490508163ffffffff16101561117057600160008363ffffffff1663ffffffff1681526020019081526020016000206008018163ffffffff168154811061108d5761108c612207565b5b90600052602060002090602091828204019190069054906101000a900460ff1661115d57600160008363ffffffff1663ffffffff16815260200190815260200160002060020160009054906101000a900473ffffffffffffffffffffffffffffffffffffffff1673ffffffffffffffffffffffffffffffffffffffff166108fc600160008563ffffffff1663ffffffff168152602001908152602001600020600501549081150290604051600060405180830381858888f1935050505015801561115b573d6000803e3d6000fd5b505b808061116890611fed565b915050611020565b507f8a7e415f5cd081169cfb480b29f7c50456c9794a6fe7ee21dc93ef147c14b87533826040516111a2929190612236565b60405180910390a150565b8280548282559060005260206000209081019282156111f5579160200282015b828111156111f45782518290816111e49190611e84565b50916020019190600101906111cd565b5b50905061120291906113a4565b5090565b82805482825590600052602060002090810192821561127f579160200282015b8281111561127e5782518260006101000a81548173ffffffffffffffffffffffffffffffffffffffff021916908373ffffffffffffffffffffffffffffffffffffffff16021790555091602001919060010190611226565b5b50905061128c91906113c8565b5090565b82805482825590600052602060002090601f016020900481019282156113255791602002820160005b838211156112f657835183826101000a81548160ff02191690831515021790555092602001926001016020816000010492830192600103026112b9565b80156113235782816101000a81549060ff02191690556001016020816000010492830192600103026112f6565b505b50905061133291906113c8565b5090565b604051806101200160405280600063ffffffff16815260200160608152602001600073ffffffffffffffffffffffffffffffffffffffff16815260200160008152602001600063ffffffff168152602001600081526020016060815260200160608152602001606081525090565b5b808211156113c457600081816113bb91906113e5565b506001016113a5565b5090565b5b808211156113e15760008160009055506001016113c9565b5090565b5080546113f190611ca7565b6000825580601f106114035750611422565b601f01602090049060005260206000209081019061142191906113c8565b5b50565b6000604051905090565b600080fd5b600080fd5b600063ffffffff82169050919050565b61145281611439565b811461145d57600080fd5b50565b60008135905061146f81611449565b92915050565b60006020828403121561148b5761148a61142f565b5b600061149984828501611460565b91505092915050565b6114ab81611439565b82525050565b600081519050919050565b600082825260208201905092915050565b60005b838110156114eb5780820151818401526020810190506114d0565b60008484015250505050565b6000601f19601f8301169050919050565b6000611513826114b1565b61151d81856114bc565b935061152d8185602086016114cd565b611536816114f7565b840191505092915050565b600073ffffffffffffffffffffffffffffffffffffffff82169050919050565b600061156c82611541565b9050919050565b61157c81611561565b82525050565b6000819050919050565b61159581611582565b82525050565b600060c0820190506115b060008301896114a2565b81810360208301526115c28188611508565b90506115d16040830187611573565b6115de606083018661158c565b6115eb60808301856114a2565b6115f860a083018461158c565b979650505050505050565b600080fd5b600080fd5b7f4e487b7100000000000000000000000000000000000000000000000000000000600052604160045260246000fd5b611645826114f7565b810181811067ffffffffffffffff821117156116645761166361160d565b5b80604052505050565b6000611677611425565b9050611683828261163c565b919050565b600067ffffffffffffffff8211156116a3576116a261160d565b5b6116ac826114f7565b9050602081019050919050565b82818337600083830152505050565b60006116db6116d684611688565b61166d565b9050828152602081018484840111156116f7576116f6611608565b5b6117028482856116b9565b509392505050565b600082601f83011261171f5761171e611603565b5b813561172f8482602086016116c8565b91505092915050565b61174181611582565b811461174c57600080fd5b50565b60008135905061175e81611738565b92915050565b6000806000806080858703121561177e5761177d61142f565b5b600085013567ffffffffffffffff81111561179c5761179b611434565b5b6117a88782880161170a565b94505060206117b98782880161174f565b93505060406117ca87828801611460565b92505060606117db8782880161174f565b91505092959194509250565b60006020820190506117fc60008301846114a2565b92915050565b600080604083850312156118195761181861142f565b5b600083013567ffffffffffffffff81111561183757611836611434565b5b6118438582860161170a565b925050602061185485828601611460565b9150509250929050565b61186781611561565b811461187257600080fd5b50565b6000813590506118848161185e565b92915050565b600080604083850312156118a1576118a061142f565b5b60006118af85828601611875565b92505060206118c085828601611460565b9150509250929050565b6118d381611439565b82525050565b600082825260208201905092915050565b60006118f5826114b1565b6118ff81856118d9565b935061190f8185602086016114cd565b611918816114f7565b840191505092915050565b61192c81611561565b82525050565b61193b81611582565b82525050565b600081519050919050565b600082825260208201905092915050565b6000819050602082019050919050565b600061197983836118ea565b905092915050565b6000602082019050919050565b600061199982611941565b6119a3818561194c565b9350836020820285016119b58561195d565b8060005b858110156119f157848403895281516119d2858261196d565b94506119dd83611981565b925060208a019950506001810190506119b9565b50829750879550505050505092915050565b600081519050919050565b600082825260208201905092915050565b6000819050602082019050919050565b6000611a3b8383611923565b60208301905092915050565b6000602082019050919050565b6000611a5f82611a03565b611a698185611a0e565b9350611a7483611a1f565b8060005b83811015611aa5578151611a8c8882611a2f565b9750611a9783611a47565b925050600181019050611a78565b5085935050505092915050565b600081519050919050565b600082825260208201905092915050565b6000819050602082019050919050565b60008115159050919050565b611af381611ade565b82525050565b6000611b058383611aea565b60208301905092915050565b6000602082019050919050565b6000611b2982611ab2565b611b338185611abd565b9350611b3e83611ace565b8060005b83811015611b6f578151611b568882611af9565b9750611b6183611b11565b925050600181019050611b42565b5085935050505092915050565b600061012083016000830151611b9560008601826118ca565b5060208301518482036020860152611bad82826118ea565b9150506040830151611bc26040860182611923565b506060830151611bd56060860182611932565b506080830151611be860808601826118ca565b5060a0830151611bfb60a0860182611932565b5060c083015184820360c0860152611c13828261198e565b91505060e083015184820360e0860152611c2d8282611a54565b915050610100830151848203610100860152611c498282611b1e565b9150508091505092915050565b60006020820190508181036000830152611c708184611b7c565b905092915050565b7f4e487b7100000000000000000000000000000000000000000000000000000000600052602260045260246000fd5b60006002820490506001821680611cbf57607f821691505b602082108103611cd257611cd1611c78565b5b50919050565b60008190508160005260206000209050919050565b60006020601f8301049050919050565b600082821b905092915050565b600060088302611d3a7fffffffffffffffffffffffffffffffffffffffffffffffffffffffffffffffff82611cfd565b611d448683611cfd565b95508019841693508086168417925050509392505050565b6000819050919050565b6000611d81611d7c611d7784611582565b611d5c565b611582565b9050919050565b6000819050919050565b611d9b83611d66565b611daf611da782611d88565b848454611d0a565b825550505050565b600090565b611dc4611db7565b611dcf818484611d92565b505050565b5b81811015611df357611de8600082611dbc565b600181019050611dd5565b5050565b601f821115611e3857611e0981611cd8565b611e1284611ced565b81016020851015611e21578190505b611e35611e2d85611ced565b830182611dd4565b50505b505050565b600082821c905092915050565b6000611e5b60001984600802611e3d565b1980831691505092915050565b6000611e748383611e4a565b9150826002028217905092915050565b611e8d826114b1565b67ffffffffffffffff811115611ea657611ea561160d565b5b611eb08254611ca7565b611ebb828285611df7565b600060209050601f831160018114611eee5760008415611edc578287015190505b611ee68582611e68565b865550611f4e565b601f198416611efc86611cd8565b60005b82811015611f2457848901518255600182019150602085019450602081019050611eff565b86831015611f415784890151611f3d601f891682611e4a565b8355505b6001600288020188555050505b505050505050565b600060c082019050611f6b60008301896114a2565b611f786020830188611573565b8181036040830152611f8a8187611508565b9050611f99606083018661158c565b611fa660808301856114a2565b611fb360a083018461158c565b979650505050505050565b7f4e487b7100000000000000000000000000000000000000000000000000000000600052601160045260246000fd5b6000611ff882611439565b915063ffffffff820361200e5761200d611fbe565b5b600182019050919050565b7f4576656e742069732066756c6c00000000000000000000000000000000000000600082015250565b600061204f600d836114bc565b915061205a82612019565b602082019050919050565b6000602082019050818103600083015261207e81612042565b9050919050565b7f4576656e74206861732070617373656400000000000000000000000000000000600082015250565b60006120bb6010836114bc565b91506120c682612085565b602082019050919050565b600060208201905081810360008301526120ea816120ae565b9050919050565b7f4465706f73697420697320696e636f7272656374000000000000000000000000600082015250565b60006121276014836114bc565b9150612132826120f1565b602082019050919050565b600060208201905081810360008301526121568161211a565b9050919050565b600060608201905081810360008301526121778186611508565b90506121866020830185611573565b61219360408301846114a2565b949350505050565b7f4576656e7420686173206e6f7420737461727465640000000000000000000000600082015250565b60006121d16015836114bc565b91506121dc8261219b565b602082019050919050565b60006020820190508181036000830152612200816121c4565b9050919050565b7f4e487b7100000000000000000000000000000000000000000000000000000000600052603260045260246000fd5b600060408201905061224b6000830185611573565b61225860208301846114a2565b9392505050565b7f5769746864726177206166746572206576656e74210000000000000000000000600082015250565b60006122956015836114bc565b91506122a08261225f565b602082019050919050565b600060208201905081810360008301526122c481612288565b9050919050565b7f4f6e6c792063726561746f722063616e20776974686472617700000000000000600082015250565b60006123016019836114bc565b915061230c826122cb565b602082019050919050565b60006020820190508181036000830152612330816122f4565b905091905056fea264697066735822122075fee1d0a60594ff12578609c04a09cafd55831357da2d36fafaede314121c1164736f6c63430008110033",
  "linkReferences": {},
  "deployedLinkReferences": {}
}